:040000008A11FA2F38
:100F3E008316031386018312031386010F30970065
:100F4E00FF30950017169716033092001215FF30DA
:100F5E008316031392000800751CB92F8312031316
:100F6E001716BC2F83120313171297127608F3006D
:100F7E007508F2000310F30CF20C0310F30CF20CD4
:100F8E007208950008008A119F278A11771CDB2FA3
:100F9E000130F5020030031CF603F60276087504E4
:100FAE00031DE92F7710E92F0130F5070318F60A14
:100FBE000030F60703307606031DE72FFF30750667
:100FCE00031977147608F101F1077508F001F0079F
:100FDE008A11B3278A11F930F4000000F40BF42FB4
:100FEE00F82F0000CD2FF701F501F60183018A11CC
:020FFE00CA2FF8
:04400E0029FFFCFF8B
:00000001FF
